:100000000000022099010000393000000530000096
:10001000053000000530000005300000053000000C
:1000200005300000053000000530000039300000C8
:10003000393000000530000039300000F52F000095
:10004000393000003930000039300000393000000C
:1000500039300000393000003930000039300000FC
:1000600039300000393000003930000039300000EC
:1000700039300000393000003930000039300000DC
:1000800039300000393000003930000039300000CC
:1000900039300000393000003930000039300000BC
:1000A00039300000393000003930000039300000AC
:1000B00039300000393000003930000031110000C3
:1000C000393000002D18000039300000411D0000BB
:1000D00039300000D52200003930000039300000EE
:1000E000393000003930000039300000393000006C
:1000F000393000003930000039300000393000005C
:10010000393000003930000039300000393000004B
:10011000393000003134000039300000393000003F
:10012000393000003930000039300000393000002B
:10013000393000003930000039300000393000001B
:100140003930000039300000B1270000393000009C
:10015000892C0000393000003930000039300000AF
:1001600039300000393000003930000039300000EB
:1001700039300000393000003930000039300000DB
:1001800039300000393000003930000039300000CB
:100190003930000039300000574B4CF2205210B576
:1001A0001A804DF628121A8000BF00BF02F048FFE7
:1001B000524B4FF030621A60514A9A60514ADA60ED
:1001C000514B4FF470021A60504B1A6812F480724F
:1001D00004D14F490A604FF4A8521A604D4B1A7867
:1001E000110703D51A7842F008021A704A4B2A22E6
:1001F0001A700023494A4A499818884204D249494A
:10020000595899500433F5E7474A484B9A424FF002
:10021000000302D242F8043BF7E74549454A5958E2
:1002200099500433B3F5CC7FF7D1434B802103F8C9
:10023000011B42498B42F9D1414B1A60414B8A2242
:100240001A70A3F5805324225A70A0221A709A794A
:100250009207FCD59A79D406FCD43B4B9A7902F0EC
:100260000C02082AF9D103221A7146225A719A798E
:100270009006FCD5344B9A795106FBD5334A4FF0A2
:10028000827111600921516020221A702E4B9B79D6
:1002900003F00C030C2BF9D12D4B2E4A1A602E4B78
:1002A0002E4A1A6000225A60072243F8042C2C4A76
:1002B000C3F80C2D62B602F08BFF154B1B68DA07F2
:1002C00005D5284802F0E2FE274B284A1A60284B41
:1002D0001B785B0609D5244C244A2368934204D139
:1002E000204802F0D3FE0023236003F0D5FC02F087
:1002F000ADFE00F0B9F8FEE70E2005403080044066
:10030000823F04000100002B88ED00E010D0034084
:1003100014D0034002D0074000E007406007FF1FF1
:100320000C08FF1FE44100000C08FF1F980CFF1F82
:10033000000000000002FF1F00E400E056E400E0BF
:1003400008ED00E0005006400040064044800440B4
:1003500004800440C010050014E000E0BFD4010098
:1003600000002020FB52FC571CE00340A5C3945A18
:1003700000F00740FFFFFFFFFFFFFFFFFFFFFFFF52
:10038000FFFFFFFFFFFFFFFFFFFFFFFFFFFFFFFF7D
:10039000FFFFFFFFFFFFFFFFFFFFFFFFFFFFFFFF6D
:1003A000FFFFFFFFFFFFFFFFFFFFFFFFFFFFFFFF5D
:1003B000FFFFFFFFFFFFFFFFFFFFFFFFFFFFFFFF4D
:1003C000FFFFFFFFFFFFFFFFFFFFFFFFFFFFFFFF3D
:1003D000FFFFFFFFFFFFFFFFFFFFFFFFFFFFFFFF2D
:1003E000FFFFFFFFFFFFFFFFFFFFFFFFFFFFFFFF1D
:1003F000FFFFFFFFFFFFFFFFFFFFFFFFFFFFFFFF0D
:10040000FFFFFFFFFFFFFFFFFFFFFFFFDEF9FFFF23
:1004100010B5054C237833B9044B13B10448AFF33E
:1004200000800123237010BD0C08FF1F0000000096
:10043000E441000008B5064B1BB106480649AFF37E
:1004400000800648036813B1054B03B1984708BD07
:1004500000000000E44100001008FF1F0C08FF1F0F
:10046000000000007047704708B5FFF7FBFFFFF77B
:10047000FAFF00F001F8FAE710B5154C237833BB0A
:100480000123237002F0CAFC08B102F076FC00F0F0
:10049000D9FD08B100F098F801F052F908B100F068
:1004A0001DF901F0E9FB08B100F0A2F901F0AEFE80
:1004B00008B100F027FA02F017F908B100F0ACFA21
:1004C00002F07EFB08B100F031FB0023237010BD69
:1004D0002808FF1F08B50368C9B21B68984708BD04
:1004E00008B50368C9B21B68984708BD08B503681A
:1004F000C9B21B68984708BD08B50368C9B21B6834
:10050000984708BD034800EB5100B0FBF1F000F044
:100510001DBB00BF001C4E0E10B5064800EB51007D
:100520001446B0FBF1F000F011FB2046BDE810408E
:1005300000F080BB001C4E0E00F0B2BB084600F07D
:10054000E3BB084600F03EBC0846114600F0F8BB8D
:1005500008B5084600F06AFC003018BF012008BD4D
:1005600008B5084600F084FC003018BF012008BD23
:1005700000F068BD00F0A0BD00F074BD00F046BD05
:1005800000F0B2BD00F04CBD08B5084600F096FC86
:10059000012008BD08B5084600F090FC012008BD08
:1005A00010B508461446114600F0D2FC204610BD96
:1005B00038B508460D4603F095FB0446214628460B
:1005C00000F0C6FC204638BD7047FFFF044B0022F8
:1005D0001A714FF47A711A73024A99601A6070475F
:1005E0002C08FF1F003D000008B50368C9B21B6856
:1005F000984708BD08B50368C9B21B68984708BD8D
:1006000008B50368C9B21B68984708BD08B50368F8
:10061000C9B21B68984708BD034800EB5100B0FB06
:10062000F1F000F009BE00BF001C4E0E10B50648E8
:1006300000EB51001446B0FBF1F000F0FDFD204648
:10064000BDE8104000F06CBE001C4E0E00F09EBED7
:10065000084600F0EFBE084600F03EBF08461146CF
:1006600000F004BF08B5084600F05EFF003018BF78
:10067000012008BD08B5084600F078FF003018BF1B
:10068000012008BD01F05CB801F094B801F068B831
:1006900001F03AB801F0A6B801F040B808B5084634
:1006A00000F08AFF012008BD08B5084600F084FF6D
:1006B000012008BD10B508461446114600F0C6FFDB
:1006C000204610BD38B508460D4603F00BFB044626
:1006D0002146284600F0BAFF204638BD7047FFFF8C
:1006E000044B00221A714FF47A711A73024A99600E
:1006F0001A6070473C08FF1F603D000008B50368A2
:10070000C9B21B68984708BD08B50368C9B21B6821
:10071000984708BD08B50368C9B21B68984708BD6B
:1007200008B50368C9B21B68984708BD034800EBC9
:100730005100B0FBF1F001F0FDB800BF000E27073B
:1007400010B5064800EB51001446B0FBF1F001F083
:10075000F1F82046BDE8104001F02CB9000E270743
:1007600001F05EB9084601F08FB9084601F0D0B932
:100770000846114601F0A4B908B5084601F0CAF9C7
:10078000003018BF012008BD08B5084601F0E4F9A3
:10079000003018BF012008BD01F06EBA01F0A6BA02
:1007A00001F07ABA01F04CBA01F0B8BA01F052BACD
:1007B00008B5084601F0EEF9012008BD08B5084665
:1007C00001F0E8F9012008BD10B5084614461146AD
:1007D00001F02AFA204610BD38B508460D4603F050
:1007E00081FA04462146284601F01EFA204638BD0B
:1007F0007047FFFF044B00221A714FF47A711A738D
:10080000024A99601A6070474C08FF1FC03D000003
:1008100008B50368C9B21B68984708BD08B50368E6
:10082000C9B21B68984708BD08B50368C9B21B6800
:10083000984708BD08B50368C9B21B68984708BD4A
:10084000034800EB5100B0FBF1F001F0E1BA00BF4A
:10085000000E270710B5064800EB51001446B0FB08
:10086000F1F001F0D5FA2046BDE8104001F030BBB0
:10087000000E270701F062BB084601F0B7BB08462F
:1008800001F006BC0846114601F0CCBB08B508468D
:1008900001F026FC003018BF012008BD08B508464D
:1008A00001F040FC003018BF012008BD01F0AEBCD3
:1008B00001F0E6BC01F0BABC01F08CBC01F0F8BC60
:1008C00001F092BC08B5084601F02EFC012008BDDD
:1008D00008B5084601F028FC012008BD10B50846FF
:1008E0001446114601F06AFC204610BD38B5084692
:1008F0000D4603F0F7F904462146284601F05EFC58
:10090000204638BD7047FFFF044B00221A714FF498
:100910007A711A73024A99601A6070475C08FF1F67
:10092000203E000008B50368C9B21B68984708BD9F
:1009300008B50368C9B21B68984708BD08B50368C5
:10094000C9B21B68984708BD08B50368C9B21B68DF
:10095000984708BD034800EB5100B0FBF1F001F0EF
:1009600021BD00BF000E270710B5064800EB51005F
:100970001446B0FBF1F001F015FD2046BDE8104033
:1009800001F050BD000E270701F082BD084601F0BE
:10099000B3BD084601F0F4BD0846114601F0C8BDDC
:1009A00008B5084601F0EEFD003018BF012008BD73
:1009B00008B5084601F008FE003018BF012008BD48
:1009C00001F092BE01F0CABE01F09EBE01F070BE01
:1009D00001F0DCBE01F076BE08B5084601F012FE5B
:1009E000012008BD08B5084601F00CFE012008BD35
:1009F00010B508461446114601F04EFE204610BDC3
:100A000038B508460D4603F06DF9044621462846E0
:100A100001F042FE204638BD7047FFFF044B002224
:100A20001A714FF47A711A73024A99601A6070470A
:100A30006C08FF1F803E000008B50368C9B21B6840
:100A4000984708BD08B50368C9B21B68984708BD38
:100A500008B50368C9B21B68984708BD08B50368A4
:100A6000C9B21B68984708BD034800EB5100B0FBB2
:100A7000F1F001F005BF00BF000E270710B50648D2
:100A800000EB51001446B0FBF1F001F0F9FE2046F6
:100A9000BDE8104001F034BF000E270701F066BF2B
:100AA000084601F095BF084601F0D6BF084611463A
:100AB00001F0AABF08B5084601F0D0FF003018BF0A
:100AC000012008BD08B5084601F0EAFF003018BF54
:100AD000012008BD02F074B802F0ACB802F080B892
:100AE00002F052B802F0BEB802F058B808B5084695
:100AF00001F0F4FF012008BD08B5084601F0EEFF43
:100B0000012008BD10B508461446114602F030F821
:100B1000204610BD38B508460D4603F0E3F80446FC
:100B20002146284602F024F8204638BD7047FFFFD2
:100B3000044B00221A714FF47A711A73024A9960B9
:100B40001A6070477C08FF1FE03E0000294B1A68BE
:100B500042F480621A60284A00231370274A1370F7
:100B6000274A1370274A1370274A1370274B1B78A4
:100B7000152B06D01B2B08D05BB940F21332244B47
:100B800006E040F21332234B02E0234B40F21332D3
:100B90001A60224B1B78052B07D01A2B09D0012B8A
:100BA0000BD14FF451721E4B06E04FF451721D4BA6
:100BB00002E01D4B4FF451721A601C4BC0F34432DB
:100BC0001A70C0F347125A7000F01F00042202216D
:100BD00098729A70D9745A7588221A743C22DA7005
:100BE000134B40221A70A3F21F334FF000421A60D9
:100BF000704700BF348004401309FF1F9108FF1F96
:100C00001C09FF1F1409FF1F9008FF1FD208FF1FB8
:100C100040A0044018C004403C9004406007FF1FFF
:100C200044A004401CC004403890044000A006408A
:100C30001FE400E0194A937800F0030103F0EC038D
:100C40000B43410748BF43F01003937000F00F03BC
:100C5000042B124903D18B7943F040038B715279F5
:100C60000E4B02F0EF02C10648BF42F010025A716B
:100C70009A7910F0200F02F0EF02194618BF42F0E7
:100C800010028A71C205054B06D55A781978D2B27E
:100C900041F0200119705A70704700BF00A0064053
:100CA00008B5114B1B685B0500D408BD0F4B1A78C3
:100CB00002F0FF0312B1FFF7DFFBF7E70C4A4FF03A
:100CC000004111600B4A0C49D37040F203120A60D4
:100CD0004A600A4A13700A4A13700A4B1B680BB128
:100CE00001221A7008BD00BF348004409008FF1F25
:100CF00080E100E000A0064040A004401309FF1F6F
:100D00009108FF1F8C08FF1F38B50446094B1B785C
:100D100003F0FF05002BF9D12046012102F0E6F98E
:100D20002046294602F0C2F9034B53F83420034B06
:100D30001A6038BD9008FF1F603F00001809FF1FB0
:100D400010B509B140F08000194A13789842144652
:100D50002DD0184A1268520528D503F07F03052BC1
:100D600006D01A2B07D0012B08D10022124B04E029
:100D70000022124B01E0124B00221A60002900F001
:100D80007F020CBF44236023052A07D01A2A09D00A
:100D9000012A0BD143F44073074A06E043F4407341
:100DA000064A02E0064A43F440731360207010BD07
:100DB0006007FF1F3480044044A004401CC004406E
:100DC00038900440144A1378984223D01349096894
:100DD00049051ED5152B05D01B2B06D043B910494C
:100DE0000B6005E000210F4B01E00F4B0021196063
:100DF000152806D01B2808D058B940F21331084BEB
:100E000006E040F21331074B02E0074B40F213318A
:100E100019601070704700BFD208FF1F3480044073
:100E200040A0044018C004403C9004400D4A38B52E
:100E3000146814F480624FF0000410D03F280A4D6B
:100E40000AD80A4A012152F830302B6002F04EF9DC
:100E50002B681C70012038BD2C60204638BD104620
:100E600038BD00BF348004408C08FF1F603F000085
:100E70000E4B1B6813F4806316D012280C4B03D161
:100E800040F202310B4A04E0142809D10A4A40F228
:100E9000023111605A7B42F001025A7301207047FF
:100EA0005A7B02F0FE025A730020704734800440DF
:100EB00000A006400CA0044014C00440F8B51D4B2F
:100EC0001B685A05064633D51B4B1B680BB1012224
:100ED0001A701A4B1C780134402C1F4628BF00247E
:100EE000174D2B78A34218D102F0B2F840280FDC3E
:100EF000144A13791B06F3D52B7813490133402B81
:100F000028BF0023C95CDBB2C9B2D1712B70E7E7FF
:100F1000FF28E5DDFFF7B0FAE2E70B4BF6B21E550E
:100F20000A4B01221A70074BE4B2BC223C70DA7003
:100F3000F8BD00BF348004401809FF1F1C09FF1FC3
:100F40001409FF1F00A006409208FF1F9008FF1F12
:100F5000274B1B685A052DE9F04707468A4644D5BA
:100F6000244B1B680BB101221A703D4607EB0A03A4
:100F70009D4237D2DFF890801F4E98F8004096F8D7
:100F800000900134402C28BF00245FFA89F9A14564
:100F90001DD11A4BBC22DA7002F05AF840280FDC3F
:100FA000164A13791B060FD5337815490133402BA8
:100FB00028BF0023C95CDBB2C9B2D171337003E032
:100FC000FF2801DDFFF758FA33784B45E4D00C4B8E
:100FD00015F8012B1A550B4B0122E4B21A7088F850
:100FE0000040C3E7054BBC22DA70BDE8F08700BFC4
:100FF000348004401809FF1F1409FF1F00A0064099
:101000009208FF1F9008FF1F1C09FF1F08B5034B24
:101010001B7813B1FFF730FAF9E708BD9008FF1FFE
:10102000064A074B1B781078DBB2C0B283422CBF54
:101030003F3000F1FF30C01A704700BF1409FF1F96
:101040001C09FF1F054B1878054B1B78C0B2DBB29B
:10105000984238BF4030C01A704700BF1309FF1FC5
:101060009108FF1F10B5104B10491A780B78D2B2B7
:10107000DBB29A4214D00133402B28BF00230C4826
:10108000DCB2C05C0C700B490968C0B251B19A4225
:1010900038BF4032D31A1A2B04DC00230B7010BD6A
:1010A0004FF0FF3010BD00BF1309FF1F9108FF1F55
:1010B000D308FF1F8C08FF1F084B1A78084B1B78BA
:1010C000DBB29A4207D00133402B28BF0023054AE8
:1010D000D05CC0B270474FF0FF3070471309FF1F5C
:1010E0009108FF1FD308FF1F0C4B1B685B0514D52D
:1010F0000B4BDA7802F0CB02DA7040225A74DA78BD
:1011000042F03402DA70074B1A78074BD2B21A70E9
:10111000064B1B680BB100221A70704734800440E4
:1011200000A006409108FF1F1309FF1F8C08FF1F36
:1011300030B5374B1A7912F0300F31D072B69A7D34
:1011400002F0FF0022B9DA7940225A7462B627E031
:1011500062B6304A304913780978DBB2C9B2144616
:101160002B4AD5795A1C402A28BF00228A42EDB268
:1011700002D02A4B9D541346421E12F0FF00EFD1BD
:10118000DAB22270264A126852B18B4236BFC1F1E0
:101190004001C1EB03035B18272BC4BF012313706D
:1011A0001B4BD978C9B20C0620D51B7918061DD562
:1011B0001C4B1D4A1D781378EDB2DBB21046AB42D2
:1011C0000CD0134A0133402B1479184C28BF00234C
:1011D000E45CE4B2D471127D072AF0D9DBB203706B
:1011E0000B4B1A79120644BF7C22DA704B060ED5DF
:1011F000074B1A7912F0400F194608D00C4B002209
:101200001A700C4B1B6803B11A703C23CB7030BDB5
:1012100000A006401309FF1F9108FF1FD308FF1FFE
:101220008C08FF1F1C09FF1F1409FF1F9208FF1FD6
:101230009008FF1F1809FF1F294B1A6842F400622B
:101240001A60284A00231370274A1370274A137024
:10125000274A1370274A1370274B1B781A2B07D085
:101260003B2B09D0092B0BD140F21332234B06E064
:1012700040F21332224B02E0224B40F213321A604A
:10128000214B1B781F2B07D03A2B09D00A2B0BD1EF
:101290004FF451721D4B06E04FF451721C4B02E0AB
:1012A0001C4B4FF451721A601B4BC0F344321A703E
:1012B000C0F347125A700421022200F01F009872F6
:1012C0009970DA745975882119743C21D970134BBF
:1012D000402119706FF447710B441A60704700BFCA
:1012E000348004408E09FF1F2509FF1F9409FF1F4A
:1012F0008F09FF1F2409FF1F6107FF1F0CB0044067
:101300003890044004D004406207FF1F10B004402E
:1013100028A0044000D0044000B0064021E400E0D2
:10132000194A937800F0030103F0EC030B434107E3
:1013300048BF43F01003937000F00F03042B1249D1
:1013400003D18B7943F040038B7152790E4B02F03D
:10135000EF02C10648BF42F010025A719A7910F0AC
:10136000200F02F0EF02194618BF42F010028A71F6
:10137000C205054B06D55A781978D2B241F0200142
:1013800019705A70704700BF00B0064008B51C4B7A
:101390001B681B0500D408BD1A4B1A7802F0FF0326
:1013A00012B1FFF769F8F7E7174A02211160174AEF
:1013B000D370174A1278092A04D03B2A06D1154A5D
:1013C000136003E0144B40F203121A60134B1B78B6
:1013D00003F07F030A2B04D03A2B06D10022104BD6
:1013E00002E0104B40F203121A600F4A0023137000
:1013F0000E4A13700E4B1B680BB101221A7008BD08
:10140000348004402409FF1F84E100E000B006405E
:101410006107FF1F04D004400CB004406207FF1FA7
:1014200000D0044010B004408E09FF1F2509FF1FA3
:101430002009FF1F38B50446094B1B7803F0FF0550
:10144000002BF9D12046012101F050FE204629460B
:1014500001F02CFE034B53F83420034B1A6038BDC7
:101460002409FF1F603F00009009FF1F10B509B15C
:1014700040F08000144A13789842144622D0134A50
:10148000126812051DD503F07F030A2B04D03A2BF6
:1014900005D100220E4B01E00E4B00221A600029FC
:1014A00000F07F020CBF442360230A2A05D03A2AA9
:1014B00007D143F44073064A02E0064A43F44073FE
:1014C0001360207010BD00BF6207FF1F348004400E
:1014D00000D0044010B004400F4A137898421AD04C
:1014E0000E490968090515D5092B04D03B2B05D1F8
:1014F00000210B4B01E00B4B00211960092805D09E
:101500003B2807D140F21331054B02E0054B40F276
:1015100013311960107070476107FF1F3480044059
:1015200004D004400CB004400D4A38B5146814F4DB
:1015300000624FF0000410D03F280A4D0AD80A4A32
:10154000012152F830302B6001F0D0FD2B681C7067
:10155000012038BD2C60204638BD104638BD00BF84
:10156000348004402009FF1F603F00000E4B1B68C1
:1015700013F4006316D017280C4B03D140F202314C
:101580000B4A04E03C2809D10A4A40F202311160BA
:101590005A7B42F001025A73012070475A7B02F0D5
:1015A000FE025A73002070473480044000B00640A9
:1015B00008B0044008D00440F8B51D4B1B681A055C
:1015C000064633D51B4B1B680BB101221A701A4B10
:1015D0001C780134282C1F4628BF0024174D2B7877
:1015E000A34218D101F034FD40280FDC144A1379CE
:1015F0001B06F3D52B7813490133282B28BF002372
:10160000C95CDBB2C9B2D1712B70E7E7FF28E5DD19
:10161000FEF732FFE2E70B4BF6B21E550A4B0122F2
:101620001A70074BE4B2BC223C70DA70F8BD00BF00
:10163000348004409009FF1F9409FF1F8F09FF1F8A
:1016400000B006402609FF1F2409FF1F274B1B6817
:101650001A052DE9F04707468A4644D5244B1B68F6
:101660000BB101221A703D4607EB0A039D4237D2A7
:10167000DFF890801F4E98F8004096F800900134F3
:10168000282C28BF00245FFA89F9A1451DD11A4BE7
:10169000BC22DA7001F0DCFC40280FDC164A13791A
:1016A0001B060FD5337815490133282B28BF00239B
:1016B000C95CDBB2C9B2D171337003E0FF2801DD30
:1016C000FEF7DAFE33784B45E4D00C4B15F8012BCE
:1016D0001A550B4B0122E4B21A7088F80040C3E798
:1016E000054BBC22DA70BDE8F08700BF34800440AF
:1016F0009009FF1F8F09FF1F00B006402609FF1F3A
:101700002409FF1F9409FF1F08B5034B1B7813B171
:10171000FEF7B2FEF9E708BD2409FF1F064A074B92
:101720001B781078DBB2C0B283422CBF273000F1A7
:10173000FF30C01A704700BF8F09FF1F9409FF1FB9
:10174000054B1878054B1B78C0B2DBB2984238BF06
:101750004030C01A704700BF8E09FF1F2509FF1FC8
:1017600010B5104B10491A780B78D2B2DBB29A42FE
:1017700014D00133402B28BF00230C48DCB2C05CDE
:101780000C700B490968C0B251B19A4238BF40325F
:10179000D31A1A2B04DC00230B7010BD4FF0FF305E
:1017A00010BD00BF8E09FF1F2509FF1F4E09FF1F37
:1017B0002009FF1F084B1A78084B1B78DBB29A42AE
:1017C00007D00133402B28BF0023054AD05CC0B2AC
:1017D00070474FF0FF3070478E09FF1F2509FF1F2C
:1017E0004E09FF1F0C4B1B681B0514D50B4BDA78F9
:1017F00002F0CB02DA7040225A74DA7842F03402F6
:10180000DA70074B1A78074BD2B21A70064B1B6876
:101810000BB100221A7070473480044000B00640BB
:101820002509FF1F8E09FF1F2009FF1F30B5374B09
:101830001A7912F0300F31D072B69A7D02F0FF00A3
:1018400022B9DA7940225A7462B627E062B6304A89
:10185000304913780978DBB2C9B214462B4AD579DE
:101860005A1C402A28BF00228A42EDB202D02A4BDD
:101870009D541346421E12F0FF00EFD1DAB22270DF
:10188000264A126852B18B4236BFC1F14001C1EB0A
:1018900003035B18272BC4BF012313701B4BD9789C
:1018A000C9B20C0620D51B7918061DD51C4B1D4A44
:1018B0001D781378EDB2DBB21046AB420CD0134A60
:1018C0000133282B1479184C28BF0023E45CE4B2C0
:1018D000D471127D072AF0D9DBB203700B4B1A7951
:1018E000120644BF7C22DA704B060ED5074B1A79DC
:1018F00012F0400F194608D00C4B00221A700C4B06
:101900001B6803B11A703C23CB7030BD00B0064099
:101910008E09FF1F2509FF1F4E09FF1F2009FF1F0A
:101920009409FF1F8F09FF1F2609FF1F2409FF1FAE
:101930009009FF1F164B1A6842F480521A60154A2C
:1019400000231370144A1370144A1370144A13704E
:10195000144A1370144A40F2133111604FF451715C
:101960005160124AC0F344311170C0F3471100F0C6
:101970001F0051709072937013742C23D3700C4B12
:1019800040221A70A3F21F3308221A60704700BF6A
:1019900034800440060AFF1F9D09FF1F0C0AFF1F29
:1019A000070AFF1F9C09FF1F08C0044000C0064033
:1019B00023E400E0194A937800F0030103F0EC03FC
:1019C0000B43410748BF43F01003937000F00F032F
:1019D000042B124903D18B7943F040038B71527968
:1019E0000E4B02F0EF02C10648BF42F010025A71DE
:1019F0009A7910F0200F02F0EF02194618BF42F05A
:101A000010028A71C205054B06D55A781978D2B2F0
:101A100041F0200119705A70704700BF00C00640A5
:101A200008B5124B1B68DB0400D408BD104B1A78B4
:101A300002F0FF0312B1FEF71FFDF7E70D4A082180
:101A400011600D4A01F1804101F59821D37040F2F7
:101A500003120A604A60094A1370094A1370094B5D
:101A60001B680BB101221A7008BD00BF348004400E
:101A70009C09FF1F84E100E000C00640060AFF1F2A
:101A80009D09FF1F9809FF1F38B50446094B1B78B5
:101A900003F0FF05002BF9D12046012101F026FBC0
:101AA0002046294601F002FB034B53F83420034B38
:101AB0001A6038BD9C09FF1F603F0000080AFF1F25
:101AC00010B509B140F080000E4A1378984217D043
:101AD0000D4C2468E40412D503F07F03082B02D1D7
:101AE0000A4B00241C60002900F07F030CBF442136
:101AF0006021082B03D1054B41F44071196010702F
:101B000010BD00BF6307FF1F348004400CC00440B9
:101B10007047FFFF0D4A38B5146814F480524FF037
:101B2000000410D03F280A4D0AD80A4A012152F871
:101B300030302B6001F0DAFA2B681C70012038BDC0
:101B40002C60204638BD104638BD00BF34800440AC
:101B50009809FF1F603F00000B4B1B6813F4805374
:101B600010D00E28094B09D1094A40F20231116008
:101B70005A7B42F001025A73012070475A7B02F0EF
:101B8000FE025A73002070473480044000C00640B3
:101B900004C00440F8B51D4B1B68DA04064633D573
:101BA0001B4B1B680BB101221A701A4B1C780134B5
:101BB000282C1F4628BF0024174D2B78A34218D18C
:101BC00001F046FA40280FDC144A13791B06F3D5BE
:101BD0002B7813490133282B28BF0023C95CDBB2C3
:101BE000C9B2D1712B70E7E7FF28E5DDFEF744FCB1
:101BF000E2E70B4BF6B21E550A4B01221A70074B57
:101C0000E4B2AC223C70DA70F8BD00BF348004400E
:101C1000080AFF1F0C0AFF1F070AFF1F00C006402B
:101C20009E09FF1F9C09FF1F38B504464518AC42AA
:101C300004D014F8010BFFF7ADFFF8E738BDFFFF44
:101C400008B5034B1B7813B1FEF716FCF9E708BD86
:101C50009C09FF1F064A074B1B781078DBB2C0B205
:101C600083422CBF273000F1FF30C01A704700BFFD
:101C7000070AFF1F0C0AFF1F054B1878054B1B783E
:101C8000C0B2DBB2984238BF4030C01A704700BFC4
:101C9000060AFF1F9D09FF1F10B5104B10491A7847
:101CA0000B78D2B2DBB29A4214D00133402B28BF5A
:101CB00000230C48DCB2C05C0C700B490968C0B250
:101CC00051B19A4238BF4032D31A1A2B04DC002398
:101CD0000B7010BD4FF0FF3010BD00BF060AFF1F94
:101CE0009D09FF1FC609FF1F9809FF1F084B1A789F
:101CF000084B1B78DBB29A4207D00133402B28BF38
:101D00000023054AD05CC0B270474FF0FF307047E7
:101D1000060AFF1F9D09FF1FC609FF1F054B1A7802
:101D2000054BD2B21A70054B1B680BB100221A701A
:101D3000704700BF9D09FF1F060AFF1F9809FF1F7C
:101D400010B5294B1A79920620D5284AD8791378EC
:101D500027490133402B097828BF00238B42C0B2AA
:101D600003D02449C854D9B21170234A116869B10B
:101D7000224A1278D2B2934236BFC2F14002C2EB7D
:101D800003039B18272BC4BF01230B70164AD1787D
:101D9000C9B20C0616D51379180613D5184B174877
:101DA0001C780378DBB29C4202D16C23D37009E02B
:101DB0000133282B28BF0023124CE45CDBB2E4B2D1
:101DC000D47103704B060ED5074B1A7912F0400FF1
:101DD000194608D00C4B00221A700C4B1B6803B13B
:101DE0001A702C23CB7010BD00C00640060AFF1FDE
:101DF0009D09FF1FC609FF1F9809FF1F070AFF1F44
:101E00000C0AFF1F9E09FF1F9C09FF1F080AFF1FE6
:101E1000214B1A6842F400521A60204A00231370C2
:101E20001F4A13701F4A13701F4A13701F4A137002
:101E30001F4B1B781F2B05D03F2B07D140F21332CD
:101E40001C4B02E01C4B40F213321A601B4B1B78F8
:101E5000202B05D03E2B07D14FF45172184B02E0D6
:101E6000184B4FF451721A60174BC0F344321A707A
:101E7000C0F347125A7000F01F00002298729A7047
:101E80001A742C22DA70114B40226FF448711A70C8
:101E90000B4420221A607047348004407E0AFF1FE2
:101EA000150AFF1F840AFF1F7F0AFF1F140AFF1F66
:101EB0006407FF1F14D0044028A004406507FF1FDB
:101EC00010D004402CA0044000D0064025E400E0DF
:101ED000194A937800F0030103F0EC030B43410728
:101EE00048BF43F01003937000F00F03042B124916
:101EF00003D18B7943F040038B7152790E4B02F082
:101F0000EF02C10648BF42F010025A719A7910F0F0
:101F1000200F02F0EF02194618BF42F010028A713A
:101F2000C205054B06D55A781978D2B241F0200186
:101F300019705A70704700BF00D006401E4B1B68D6
:101F40009B0410B500D410BD1C4B1B7803F0FF029E
:101F500013B1FEF791FAF7E7194B1A4C1A482021F2
:101F600019601A4B1A49DA7040F203130B602360B0
:101F700000781F2804D03F2803D1164B1A6000E0D8
:101F80000B60154B1B7803F07F03202B05D03E2BF5
:101F900006D1124B00221A6002E040F203132360C4
:101FA0000F4A002313700F4A13700F4B1B680BB1BD
:101FB00001221A7010BD00BF34800440140AFF1FB4
:101FC00084E100E02CA004406407FF1F00D006401D
:101FD00028A0044014D004406507FF1F10D004401F
:101FE0007E0AFF1F150AFF1F100AFF1F38B504469F
:101FF000094B1B7803F0FF05002BF9D12046012186
:1020000001F074F82046294601F050F8034B53F8CC
:102010003420034B1A6038BD140AFF1F603F0000D4
:10202000800AFF1F10B509B140F08000144A1378F0
:102030009842144622D0134A126892041DD503F028
:102040007F03202B04D03E2B05D100220E4B01E054
:102050000E4B00221A60002900F07F020CBF4423BF
:102060006023202A05D03E2A07D143F44073064A54
:1020700002E0064A43F440731360207010BD00BFB5
:102080006507FF1F3480044010D004402CA004409A
:102090000F4A137898421AD00E490968890415D559
:1020A0001F2B04D03F2B05D100210B4B01E00B4B24
:1020B000002119601F2805D03F2807D140F21331B5
:1020C000054B02E0054B40F2133119601070704768
:1020D0006407FF1F3480044014D0044028A004404B
:1020E0000D4A38B5146814F400524FF0000410D0B3
:1020F0003F280A4D0AD80A4A012152F830302B6095
:1021000000F0F4FF2B681C70012038BD2C602046C5
:1021100038BD104638BD00BF34800440100AFF1F90
:10212000603F000000207047F8B51D4B1B689A0403
:10213000064633D51B4B1B680BB101221A701A4B94
:102140001C780134282C1F4628BF0024174D2B78FB
:10215000A34218D100F07CFF40280FDC144A137909
:102160001B06F3D52B7813490133282B28BF0023F6
:10217000C95CDBB2C9B2D1712B70E7E7FF28E5DD9E
:10218000FEF77AF9E2E70B4BF6B21E550A4B012235
:102190001A70074BE4B2AC223C70DA70F8BD00BF95
:1021A00034800440800AFF1F840AFF1F7F0AFF1F3C
:1021B00000D00640160AFF1F140AFF1F38B5044658
:1021C0004518AC4204D014F8010BFFF7ADFFF8E757
:1021D00038BDFFFF08B5034B1B7813B1FEF74CF970
:1021E000F9E708BD140AFF1F064A074B1B78107851
:1021F000DBB2C0B283422CBF273000F1FF30C01ADF
:10220000704700BF7F0AFF1F840AFF1F054B187825
:10221000054B1B78C0B2DBB2984238BF4030C01AC1
:10222000704700BF7E0AFF1F150AFF1F10B5104B35
:1022300010491A780B78D2B2DBB29A4214D001332B
:10224000402B28BF00230C48DCB2C05C0C700B494B
:102250000968C0B251B19A4238BF4032D31A1A2B22
:1022600004DC00230B7010BD4FF0FF3010BD00BF29
:102270007E0AFF1F150AFF1F3E0AFF1F100AFF1FDD
:10228000084B1A78084B1B78DBB29A4207D001330F
:10229000402B28BF0023054AD05CC0B270474FF0E6
:1022A000FF3070477E0AFF1F150AFF1F3E0AFF1FFF
:1022B000054B1A78054BD2B21A70054B1B680BB14F
:1022C00000221A70704700BF150AFF1F7E0AFF1F09
:1022D000100AFF1F10B5294B1A79920620D5284AFB
:1022E000D879137827490133402B097828BF002378
:1022F0008B42C0B203D02449C854D9B21170234ACA
:10230000116869B1224A1278D2B2934236BFC2F143
:102310004002C2EB03039B18272BC4BF01230B70A1
:10232000164AD178C9B20C0616D51379180613D5FA
:10233000184B17481C780378DBB29C4202D16C23FF
:10234000D37009E00133282B28BF0023124CE45C32
:10235000DBB2E4B2D47103704B060ED5074B1A7989
:1023600012F0400F194608D00C4B00221A700C4B8B
:102370001B6803B11A702C23CB7010BD00D006402F
:102380007E0AFF1F150AFF1F3E0AFF1F100AFF1FCC
:102390007F0AFF1F840AFF1F160AFF1F140AFF1F70
:1023A000800AFF1F164B1A6842F480621A60154AB1
:1023B00000231370144A1370144A1370144A1370D4
:1023C000144A1370144A40F2133111604FF45171E2
:1023D00042F8041C114AC0F344311170C0F3471194
:1023E00000F01F0051709072937013742C23D370FF
:1023F0000B4B40221A70A3F23A3304221A60704742
:1024000028800440F60AFF1F8D0AFF1FFC0AFF1FE9
:10241000F70AFF1F8C0AFF1F64D0044000A00E4083
:1024200042E400E0194A937800F0030103F0EC0362
:102430000B43410748BF43F01003937000F00F03B4
:10244000042B124903D18B7943F040038B715279ED
:102450000E4B02F0EF02C10648BF42F010025A7163
:102460009A7910F0200F02F0EF02194618BF42F0DF
:1024700010028A71C205054B06D55A781978D2B276
:1024800041F0200119705A70704700BF00A00E4043
:1024900008B5114B1B685B0500D408BD0F4B1A78BB
:1024A00002F0FF0312B1FDF7E7FFF7E70C4A042142
:1024B00011600C4A0C49D37040F203120A6041F8D3
:1024C000042C0A4A13700A4A13700A4B1B680BB19A
:1024D00001221A7008BD00BF288004408C0AFF1F2B
:1024E00088E100E000A00E4064D00440F60AFF1F1F
:1024F0008D0AFF1F880AFF1F38B50446094B1B7859
:1025000003F0FF05002BF9D12046012100F0EEFD7C
:102510002046294600F0CAFD034B53F83420034BF4
:102520001A6038BD8C0AFF1F603F0000F80AFF1FC9
:1025300010B509B140F080000E4A1378984217D0C8
:102540000D4C2468E40412D503F07F03212B02D143
:102550000A4B00241C60002900F07F030CBF4421BB
:102560006021212B03D1054B41F44071196010709B
:1025700010BD00BF6607FF1F3480044060D00440D8
:102580007047FFFF0D4A38B5146814F480624FF0AD
:10259000000410D03F280A4D0AD80A4A012152F8F7
:1025A00030302B6000F0A2FD2B681C70012038BD7C
:1025B0002C60204638BD104638BD00BF288004403E
:1025C000880AFF1F603F00000B4B1B6813F48063F9
:1025D00010D01828094B09D1094A40F20231116084
:1025E0005A7B42F001025A73012070475A7B02F075
:1025F000FE025A73002070472880044000A00E405D
:1026000068D00440F8B51D4B1B685A05064633D503
:102610001B4B1B680BB101221A701A4B1C7801343A
:10262000282C1F4628BF0024174D2B78A34218D111
:1026300000F00EFD40280FDC144A13791B06F3D579
:102640002B7813490133282B28BF0023C95CDBB248
:10265000C9B2D1712B70E7E7FF28E5DDFDF70CFF6C
:10266000E2E70B4BF6B21E550A4B01221A70074BDC
:10267000E4B2AC223C70DA70F8BD00BF28800440A0
:10268000F80AFF1FFC0AFF1FF70AFF1F00A00E40F9
:102690008E0AFF1F8C0AFF1F38B504464518AC424E
:1026A00004D014F8010BFFF7ADFFF8E738BDFFFFCA
:1026B00008B5034B1B7813B1FDF7DEFEF9E708BD43
:1026C0008C0AFF1F064A074B1B781078DBB2C0B29A
:1026D00083422CBF273000F1FF30C01A704700BF83
:1026E000F70AFF1FFC0AFF1F054B1878054B1B78E4
:1026F000C0B2DBB2984238BF4030C01A704700BF4A
:10270000F60AFF1F8D0AFF1F10B5104B10491A78EB
:102710000B78D2B2DBB29A4214D00133402B28BFDF
:1027200000230C48DCB2C05C0C700B490968C0B2D5
:1027300051B19A4238BF4032D31A1A2B04DC00231D
:102740000B7010BD4FF0FF3010BD00BFF60AFF1F29
:102750008D0AFF1FB60AFF1F880AFF1F084B1A7851
:10276000084B1B78DBB29A4207D00133402B28BFBD
:102770000023054AD05CC0B270474FF0FF3070476D
:10278000F60AFF1F8D0AFF1FB60AFF1F054B1A78B6
:10279000054BD2B21A70054B1B680BB100221A70A0
:1027A000704700BF8D0AFF1FF60AFF1F880AFF1F30
:1027B00010B5294B1A79920620D5284AD879137872
:1027C00027490133402B097828BF00238B42C0B230
:1027D00003D02449C854D9B21170234A116869B191
:1027E000224A1278D2B2934236BFC2F14002C2EB03
:1027F00003039B18272BC4BF01230B70164AD17803
:10280000C9B20C0616D51379180613D5184B1748FC
:102810001C780378DBB29C4202D16C23D37009E0B0
:102820000133282B28BF0023124CE45CDBB2E4B256
:10283000D47103704B060ED5074B1A7912F0400F76
:10284000194608D00C4B00221A700C4B1B6803B1C0
:102850001A702C23CB7010BD00A00E40F60AFF1F8B
:102860008D0AFF1FB60AFF1F880AFF1FF70AFF1F06
:10287000FC0AFF1F8E0AFF1F8C0AFF1FF80AFF1FAA
:10288000164B1A6842F400621A60154A002313704E
:10289000144A1370144A1370144A1370144A1370B4
:1028A000144A40F2133111604FF451715160124AD1
:1028B000C0F344311170C0F3471100F01F00517094
:1028C0009072937013742C23D3700C4B40221A70A7
:1028D000A3F54F7310221A60704700BF2880044090
:1028E0006E0BFF1F050BFF1F740BFF1F6F0BFF1FEE
:1028F000040BFF1F20C0044000B00E4044E400E081
:10290000194A937800F0030103F0EC030B434107ED
:1029100048BF43F01003937000F00F03042B1249DB
:1029200003D18B7943F040038B7152790E4B02F047
:10293000EF02C10648BF42F010025A719A7910F0B6
:10294000200F02F0EF02194618BF42F010028A7100
:10295000C205054B06D55A781978D2B241F020014C
:1029600019705A70704700BF00B00E4008B5104B88
:102970001B681B0500D408BD0E4B1A7802F0FF033C
:1029800012B1FDF779FDF7E70B4A102111600B4AF0
:102990000B49D37040F203120A604A60094A13706F
:1029A000094A1370094B1B680BB101221A7008BD4C
:1029B00028800440040BFF1F88E100E000B00E40B7
:1029C00020C004406E0BFF1F050BFF1F000BFF1FF5
:1029D00038B50446094B1B7803F0FF05002BF9D1ED
:1029E0002046012100F082FB2046294600F05EFBD4
:1029F000034B53F83420034B1A6038BD040BFF1F00
:102A0000603F0000700BFF1F10B509B140F080005F
:102A10000E4A1378984217D00D4C2468E40412D55E
:102A200003F07F03302B02D10A4B00241C600029E5
:102A300000F07F030CBF44216021302B03D1054BF4
:102A400041F440711960107010BD00BF6707FF1F8F
:102A50003480044024C004407047FFFF0D4A38B55D
:102A6000146814F400624FF0000410D03F280A4D9F
:102A70000AD80A4A012152F830302B6000F036FBA8
:102A80002B681C70012038BD2C60204638BD1046D4
:102A900038BD00BF28800440000BFF1F603F0000CE
:102AA0000B4B1B6813F4006310D03828094B09D175
:102AB000094A40F2023111605A7B42F001025A7316
:102AC000012070475A7B02F0FE025A7300207047C3
:102AD0002880044000B00E4028D00440F8B51D4BBB
:102AE0001B681A05064633D51B4B1B680BB1012228
:102AF0001A701A4B1C780134282C1F4628BF00245A
:102B0000174D2B78A34218D100F0A2FA40280FDC11
:102B1000144A13791B06F3D52B7813490133282B5C
:102B200028BF0023C95CDBB2C9B2D1712B70E7E7C3
:102B3000FF28E5DDFDF7A0FCE2E70B4BF6B21E55E2
:102B40000A4B01221A70074BE4B2AC223C70DA70D7
:102B5000F8BD00BF28800440700BFF1F740BFF1FDF
:102B60006F0BFF1F00B00E40060BFF1F040BFF1F73
:102B700038B504464518AC4204D014F8010BFFF7F1
:102B8000ADFFF8E738BDFFFF08B5034B1B7813B165
:102B9000FDF772FCF9E708BD040BFF1F064A074B5F
:102BA0001B781078DBB2C0B283422CBF273000F113
:102BB000FF30C01A704700BF6F0BFF1F740BFF1F61
:102BC000054B1878054B1B78C0B2DBB2984238BF72
:102BD0004030C01A704700BF6E0BFF1F050BFF1F70
:102BE00010B5104B10491A780B78D2B2DBB29A426A
:102BF00014D00133402B28BF00230C48DCB2C05C4A
:102C00000C700B490968C0B251B19A4238BF4032CA
:102C1000D31A1A2B04DC00230B7010BD4FF0FF30C9
:102C200010BD00BF6E0BFF1F050BFF1F2E0BFF1FFC
:102C3000000BFF1F084B1A78084B1B78DBB29A4237
:102C400007D00133402B28BF0023054AD05CC0B217
:102C500070474FF0FF3070476E0BFF1F050BFF1FD3
:102C60002E0BFF1F054B1A78054BD2B21A70054B7D
:102C70001B680BB100221A70704700BF050BFF1FC5
:102C80006E0BFF1F000BFF1F10B5294B1A79920620
:102C900020D5284AD879137827490133402B097861
:102CA00028BF00238B42C0B203D02449C854D9B2F4
:102CB0001170234A116869B1224A1278D2B2934244
:102CC00036BFC2F14002C2EB03039B18272BC4BFDF
:102CD00001230B70164AD178C9B20C0616D51379A8
:102CE000180613D5184B17481C780378DBB29C42A2
:102CF00002D16C23D37009E00133282B28BF0023B5
:102D0000124CE45CDBB2E4B2D47103704B060ED516
:102D1000074B1A7912F0400F194608D00C4B0022CD
:102D20001A700C4B1B6803B11A702C23CB7010BDAA
:102D300000B00E406E0BFF1F050BFF1F2E0BFF1F79
:102D4000000BFF1F6F0BFF1F740BFF1F060BFF1FF6
:102D5000040BFF1F700BFF1F00F060B800F01CB8E1
:102D600000F040B800F0F4B800F066B8084600F093
:102D7000E3B80846114600F077B87047044B0022CC
:102D80001A714FF47A711A73024A99601A60704787
:102D9000780BFF1F403F000010B5104C23686BB14B
:102DA00020684288531C0244147A0288934212D34A
:102DB00000F0A0FE094B00221A600DE0084B1B78C2
:102DC00013B94FF0FF3010BD032000F087FA2060E8
:102DD0000028E5D1F5E74380204610BD940BFF1F86
:102DE0007F0CFF1F10B50B4C236813B123686BB920
:102DF00002E0094B1B7813B94FF0FF3010BD0320E0
:102E000000F06CFA20600028F0D1F5E75A881344EE
:102E1000187A10BD940BFF1F7F0CFF1F044B98887E
:102E2000044B1B681BB11A885B88D31A184470477F
:102E3000900CFF1F940BFF1F10B5094B1B786BB153
:102E4000084C206818B100F055FE002323600320D1
:102E500000F044FA10B100F04DFEF8E710BD00BFDD
:102E60007F0CFF1F940BFF1F2DE9F8432D4E01230C
:102E700007460C463370002C4FD02B4D2B68A946CB
:102E80002BBB4DF2E908294B1B7803F0FF020BB96D
:102E9000327015E0042000F03DFA072808D801231D
:102EA000337000F009FEC9F8000080B91D4B18709E
:102EB000B8F101081E4B01D01A782AB101221A700C
:102EC0004FF0FF30BDE8F883FDF7D6FADBE729685D
:102ED000174A488800231370C0F14002944238BF5B
:102EE000224600F1080C10448C444880A41A9342F6
:102EF00004D0F85C0CF803000133F8E71F444B885A
:102F00003F2B06D940230B80042000F051FA002308
:102F10002B60084B05221A70ADE734702046BDE8DF
:102F2000F88300BF890BFF1F8C0BFF1F7F0CFF1F57
:102F3000900BFF1F880BFF1F07B502AB012103F8A1
:102F4000010D1846FFF790FF03B05DF804FBFFFF8B
:102F50002DE9F041114B1B78F3B1114E114B346840
:102F6000114D01271F7098464CB1002763882F70C0
:102F700004202380214600F01BFA376009E000F0AE
:102F80009BFD014620B104202C7000F011FA00E0F6
:102F90002F70002388F80030BDE8F0817F0CFF1F00
:102FA0008C0BFF1F890BFF1F880BFF1F38B50E4BC3
:102FB0001B7803F0FF05ABB90C4C216831B14B888D
:102FC0000B80042000F0F4F9256038BD00F074FD9A
:102FD000014620B10420BDE8384000F0E9B9044BB7
:102FE00001221A7038BD00BF890BFF1F8C0BFF1F19
:102FF000880BFF1F024B1A6801321A60704700BF2E
:103000009C0BFF1F08B50B4C2368580301D500F03B
:103010000FFA2368590501D5FEF78AF823681A05C7
:1030200001D5FEF703FC2368DB04ECD5FEF788FE30
:10303000E9E700BF3480044008B5FFF7E3FFFFFF76
:10304000014B10221A807047002005407047FFFF97
:10305000EFF313839BB9EFF3108098B9EFF3058377
:1030600023B10F2B04D9084A985C01E04FF480701B
:10307000EFF311833BB1834238BF184670474FF0DE
:10308000FF30704718467047F0E300E0044B0549F5
:1030900000221A600A60044A106010221A60704709
:1030A00014D0034004D0034000D003403F2810B5A3
:1030B00018D80D4A52F8303093F880423CB10122C2
:1030C00011B183F8802010BD83F8002110BD02EB00
:1030D000C00043681A6811B142F0030201E022F017
:1030E00002021A6010BD00BF603F00003F2810B50B
:1030F00037D81C4A02EBC00301295B68144601D093
:1031000004290FD154F83020012082F880024FF4B6
:10311000A2721A601A6804290CBF42F0200222F041
:1031200020021DE052F83020002082F8800211B108
:103130008A1E012A12D84FF4807202291A6003D124
:103140001A6842F003020BE003290AD11A6842F020
:1031500002021A601A6822F0010201E040F2031232
:103160001A6010BD603F000072B60B4B0B491A6825
:103170000B4B1B68096862B6490102D5322A88BF29
:103180000133C2F5EA327821BF32B2FBF1F24FF4DB
:103190007A7000FB0320704718E000E004ED00E0C7
:1031A0009C0BFF1F38B50446FFF7DEFF054624B928
:1031B00038BD013C0AD005F57A75FFF7D5FF401BF5
:1031C000B0F57A7FF5D2FDF757F9F6E738BDFFFF86
:1031D0002A4B4FF0006270B51A604FF080521A60AF
:1031E0004FF000521A604FF080421A604FF00042D8
:1031F0001A60234B234A244D244C254E4EF6FF7172
:103200000020186059602823136093601361936154
:103210001362936213639363103202F501222B60F1
:1032200023601360936013619361136293620922B8
:10323000326006F58056043630607160B3603361E9
:1032400046F8042C06F5FE2630607160B3603361E9
:1032500046F8042C06F5805630600E4801602B605D
:1032600023600D4B1A6000F067FC4FF4C870FFF745
:1032700099FFBDE8704000F0D9BB00BF04E100E059
:10328000048003400C8003400C900B4014900B40D2
:103290000080034008900B4000900B40F0B50C4BB1
:1032A0000C4C1A7842F0020504EBC50682F00102CC
:1032B000706009481A700678002E0CBF8827C8274E
:1032C00086F0010647EA0141067044F83510F0BD6A
:1032D000080CFF1F0000FF1F800CFF1F431E032B65
:1032E00010B510D872B6094A52F8230048B14168A7
:1032F00042F82310064A018832F81340611A22F876
:10330000131062B610BD002010BD00BFF80BFF1FE8
:10331000900CFF1F013803280AD872B6054B53F8EA
:103320002030002013B101305B68FBE762B67047C4
:10333000002070474C0CFF1F10B572B60123174ACE
:103340001A4412F8012C12071CD59900144A52F89D
:1033500031402CB902EB431308305860114B09E09F
:1033600041F0010152F8314064B902EBC103083069
:1033700058600D4B42F831300C4B1A78013A1A70F4
:1033800062B610BD0133052BD9D162B6074B0022BE
:103390001A70BDE8104000F0ADBB00BF60410000F6
:1033A0000000FF1F88004000C8004000760CFF1F8F
:1033B000431E032B30B532D8194A400140F01000AB
:1033C000104472B6174CE25C032A09D8DFE802F019
:1033D000160218050830022213E00830042210E01B
:1033E0001148124A50F8234014B940F8231002E063
:1033F00052F82300416042F823100FE0032200E05E
:103400000522E25410F0080F01F108030A88436016
:103410000CBF8823C82343EA0243036062B630BD71
:103420000000FF1FB40BFF1F4C0CFF1F5C0CFF1FA5
:103430002DE9F84FAB4F3C78E4B214F0040F3D4651
:1034400019D0A94B1B78A3B1A84A117801F0FF034A
:1034500021B1013BDBB2137003B900BEA44A11785D
:1034600001F0FF0329B1013BDBB213700BB9FFF789
:103470009DFD04233B7004F0080303F0FF02002BC2
:1034800000F067829B4B9C4C1A78D2B215094FEA28
:10349000920840F0E48104EBC803596854F83830CE
:1034A000C3F38303013B0C2B00F2D681DFE813F05A
:1034B00095019501D401D401D401D401D401D401E2
:1034C000B001D401D401D4010D008C4D0A684B68C1
:1034D0008B486B6001218B4B44F838302A60DFF851
:1034E0005082017092B240F2816000238242C8F89B
:1034F00000302361A36117D8B2F5D06F80F01E8130
:10350000B2F5817F00F0CF8006D8802A00F0BA8023
:10351000822A00F0BB8031E140F202339A4200F08F
:10352000D180B2F5A06F1CE042F22100824200F08F
:1035300051810ED8B2F5086F00F09E80B2F5106F81
:1035400040F01C81684B6C4EAA781A7006F1800915
:103550000AE042F221218A4200F0088142F221333E
:103560009A4200F00F8109E1336A1B0603D5706AA5
:10357000083800F0BFFA08364E45F5D10026B146AE
:10358000DFF8B0A156F80A0028B1D0F804B000F076
:10359000B1FA5846F8E74AF806005B4BDFF898A105
:1035A000F05056F80A0028B1D0F804B000F0A2FAA2
:1035B0005846F8E7554B4AF80600F050544B23F8AC
:1035C0001900544B19F80320023A032A08D8DFE8FF
:1035D00002F002040204002200E0012203F80920A4
:1035E00009F10109B9F1040F06F10406C8D14A4BEB
:1035F00000221A7001269A46484A494B3244334405
:1036000012F8012C9B0012F0080F1A704FEA86097D
:1036100025D000F051FA38B104EB46130830586059
:10362000404B44F8393006E09AF8003044F839004D
:1036300001338AF8003000F03FFA49F0010338B155
:1036400004EBC302083050602E4A44F8332006E0F1
:1036500044F833009AF8003001338AF8003049F01A
:103660000202013649F003090023052E44F83230E6
:1036700044F83930C0D186E01B4B2B4C1B782370AB
:103680000B4683E0284C237063707EE0AA88042AEE
:1036900074D8254C920023706370244B9B5C9E076A
:1036A00073D5217071E0AA8802F07F02042A65DCDC
:1036B0006B88002B62D191001C4A0A44117821F0DA
:1036C000020159E0AA8802F07F02042A56DC6B88C6
:1036D000002B53D19100154A0A44117841F00201A0
:1036E0004AE000BF802007407F0CFF1F090CFF1F2E
:1036F000880BFF1F902007400000FF1F6C0CFF1F6E
:10370000800CFF1FC8004000A40BFF1F5C0CFF1FB4
:10371000900CFF1FB40BFF1F760CFF1F60410000D1
:1037200030C8011088004000770CFF1FC020074000
:10373000A00BFF1FF80BFF1F4C0CFF1F6A88A98806
:103740009F4B53F8084CA3F10C00BCB133F80C6C40
:10375000964209D133F80A6C8E4205D1120A032A27
:103760000CBF2378038911E00C33EAE7954A11680E
:10377000954A1160A978954A117004E0944B0F2284
:103780001A7027E000231C4600E00223EE88B342B3
:1037900038BF1E46402E34BF3546402520462946B8
:1037A000FFF77CFD761B2C4403D1402D12D135460A
:1037B00003E0402E34BF3546402520462946FFF71A
:1037C0006DFD761B2C4401D1402D03D1814AC8F8F0
:1037D000004016800122804B3DE0804B1A8842F267
:1037E00021039A4210D100237D4AC85C98540133CA
:1037F000072BF9D11368862B02D17A4B0F221A704E
:1038000000200146FFF74AFD774B44F8383023E0AB
:10381000764E3568B5B1DFF8BC81B8F80090B9F1E3
:10382000400F34BF4C46402428462146FFF736FD62
:10383000C4EB09039BB2A8F800300BB9402C00D1AF
:103840002B193360654B1A88B2F5A06F04D10022A2
:103850005A709A78664B1A7001225F4B6CE004EB49
:10386000C806013D736802F00802A3F10800EDB23A
:1038700002F0FF01002A36D000F03CF95D485E4BB3
:1038800050F82520EAB1516840F8251002F10801EE
:103890007160595D03290BD8DFE801F002040608C6
:1038A000032104E0022102E0052100E00421595532
:1038B00016F0080F12880CBF8823C82343EA02437E
:1038C00042E05A5D032A07D8DFE802F040400204D4
:1038D000002206E0012204E016F0080F0CBF0222CD
:1038E00003225A5532E054F83820120C23F8082CE1
:1038F00022B3DFF834E123F8061C43F8041C5EF819
:1039000025303E4913B94EF8250002E051F8253024
:1039100058603B4B41F8250033F815100A4423F852
:10392000152000F0C9F810B10830706006E0354B82
:1039300044F838001A7801321A7007E02A4B324AEC
:1039400016F0080F08BF134644F8383008233B70C0
:1039500070E5E0071FD520492B482C4C02230B7043
:103960002B4B1A702B4B186098602B48D8601A614B
:103970009A615C60164B0D2018702848FF23037075
:103980002B700274264A1370264B9F221A70012353
:103990000B70BDE8F88F210604D50D4B0D221A706F
:1039A00080232B70A20705D51C4B1A78D2B21A704F
:1039B00002232B70E30644BF10232B70BDE8F88F61
:1039C000704100009C0BFF1F8C0CFF1F980BFF1F0A
:1039D000C0200740740CFF1F942007406C0CFF1F91
:1039E000840CFF1F090CFF1FC8004000A00BFF1F25
:1039F000982007404C0CFF1FB40BFF1FA40BFF1FA8
:103A0000900CFF1F760CFF1F88004000B80BFF1FB3
:103A1000080CFF1F0000FF1F0C0CFF1F8820074031
:103A20008C20074084200740F80BFF1F08B500F0EA
:103A3000DFF800221B4B0021D15098180832882A49
:103A40004160F7D1184A106840F480201060174A8E
:103A5000106840F04070106002F5C9229C32C3F338
:103A600007201070C3F307401B0E10751376FF2359
:103A700002F81C3C02F8143C02F88C3C012302F8CA
:103A8000083C82F8641002F8183C094B70226FF46D
:103A90004C711A700B444FF400121A60054B10223F
:103AA0001A7008BD0000FF1F3480044000D8004099
:103AB00035E400E00821074072B60C4A1168B1FAFB
:103AC00081F30B2B02D962B6002070474FF0004003
:103AD000D84021EA0001116062B6054948225343EB
:103AE000C8180022CA504260704700BF6807FF1F15
:103AF0000004FF1F0C4B4822C31AB3FBF2F30B2B3D
:103B000011D80A4A127822B1094A12780AB1FFF78D
:103B100013BC72B6074A4FF0004121FA03F3116853
:103B20001943116062B670470004FF1F760CFF1F37
:103B30007F0CFF1F6807FF1F10B5204B204821494D
:103B400060221A70E1225A701F4B204A1C78204BC9
:103B5000082C01D1212402E00A2C03D1392404606D
:103B6000132005E00C2C0CBF35245D2404601220CA
:103B7000086014601860174B17491B78174A03B187
:103B800001230B601360164B164A1978164B012956
:103B900001D880210BE0042901D8842107E00829FD
:103BA00001D8852103E0102994BF86218721116067
:103BB00019600E4B01221A7010BD00BF0040074073
:103BC00008B003400CB003406C07FF1F08B00B4067
:103BD0000CB00B40820CFF1F20B0034020B00B4004
:103BE0006D07FF1F24B0034024B00B40810CFF1F62
:103BF0001FB572B6134B144970221A70134A116024
:103C000080221A701A781206FCD5114B186862B619
:103C1000104B984298BF0A2301AC98BF58432146E5
:103C20000A2200F01BF80023E15C0B4A29B102EBE9
:103C3000430001330A2B4180F6D101335B0013703E
:103C400004B010BD00000240000007410400024023
:103C50000C0002407F969800F607FF1F10B5002366
:103C6000B0FBF2F402FB1400092894BF3030373067
:103C7000C0B2C85420460CB10133F1E7CA185470E1
:103C800022469A4206DA885CCC5C8C54C8540132D5
:103C9000013BF6E7084610BD70B50E4B0E4DED1A10
:103CA000AD1000241E46AC4204D056F824209047A4
:103CB0000134F8E700F080FA084D094BED1AAD1019
:103CC00000241E46AC4204D056F82420904701340C
:103CD000F8E770BDC4410000C4410000E4410000A9
:103CE000C4410000034613F8012B002AFBD1181A27
:103CF00001387047FFFFFFFF0000000000000000D8
:103D000089050000A105000071050000790500008B
:103D1000750500007D05000005050000190500007F
:103D2000390500003D05000043050000490500007D
:103D300051050000610500008105000085050000B7
:103D4000D5040000E1040000ED040000F9040000C7
:103D5000B105000095050000000000000000000013
:103D60009D060000B5060000850600008D060000D7
:103D70008906000091060000190600002D060000CB
:103D80004D06000051060000570600005D060000C9
:103D90006506000075060000950600009906000003
:103DA000E9050000F5050000010600000D06000011
:103DB000C5060000A9060000000000000000000089
:103DC000B1070000C907000099070000A107000023
:103DD0009D070000A50700002D0700004107000017
:103DE00061070000650700006B0700007107000015
:103DF0007907000089070000A9070000AD0700004F
:103E0000FD0600000907000015070000210700005B
:103E1000D9070000BD0700000000000000000000FE
:103E2000C5080000DD080000AD080000B50800006E
:103E3000B1080000B9080000410800005508000062
:103E400075080000790800007F0800008508000060
:103E50008D0800009D080000BD080000C10800009A
:103E6000110800001D0800002908000035080000A6
:103E7000ED080000D1080000000000000000000074
:103E8000D9090000F1090000C1090000C9090000BA
:103E9000C5090000CD0900005509000069090000AE
:103EA000890900008D0900009309000099090000AC
:103EB000A1090000B1090000D1090000D5090000E6
:103EC00025090000310900003D09000049090000F2
:103ED000010A0000E50900000000000000000000E9
:103EE000ED0A0000050B0000D50A0000DD0A000005
:103EF000D90A0000E10A0000690A00007D0A0000FA
:103F00009D0A0000A10A0000A70A0000AD0A0000F7
:103F1000B50A0000C50A0000E50A0000E90A000031
:103F2000390A0000450A0000510A00005D0A00003D
:103F3000150B0000F90A000000000000000000005E
:103F40006D2D0000732D0000592D00005D2D000027
:103F5000612D0000652D0000692D000000000000AB
:103F60004008FE4340A004404408FE4344A00440EF
:103F70000018FE4300C004403000FE43309004406F
:103F80003400FE43349004401C18FE431CC004401F
:103F90001018FE4310C004400818FE4308C0044037
:103FA0000C18FE430CC004400C10FE430CB004403F
:103FB0001010FE4310B004401810FE4318B0044027
:103FC0001C10FE431CB004401410FE4314B0044007
:103FD0000418FE4304C004400010FE4300B0044037
:103FE0000008FE4300A004400408FE4304A004406F
:103FF0000C08FE430CA004400808FE4308A004403F
:104000001418FE4314C004401818FE4318C004409E
:104010000410FE4304B004400810FE4308B00440FE
:104020006820FE4368D004401400FE43149004400E
:104030003800FE43389004403C00FE433C9004406E
:104040004000FE43409004404808FE4348A004401E
:104050004C08FE434CA004402808FE4328A004401E
:104060002C08FE432CA004406020FE4360D0044096
:104070006420FE4364D004402010FE4320B004407E
:104080002410FE4324B004402810FE4328B004400E
:104090002C10FE432CB004404400FE4344900440E6
:1040A0007000FE43709004407400FE43749004401E
:1040B0006800FE43689004405008FE4350A004404E
:1040C0005808FE4358A004405C08FE435CA004402E
:1040D0005408FE4354A004402018FE4320C004406E
:1040E0002418FE4324C004401008FE4310A00440DE
:1040F0001408FE4314A004403818FE4338C004409E
:104100003418FE4334C004403018FE4330C004402D
:104110003C18FE433CC004402C18FE432CC0044015
:104120002820FE4328D004402C20FE432CD00440FD
:104130000020FE4300D004400420FE4304D004408D
:104140000820FE4308D004400C20FE430CD004405D
:104150001020FE4310D004401420FE4314D004402D
:1041600000151915000100006E07FF1F1200000066
:10417000000200009807FF1F43000000000300003A
:10418000F207FF1F00000000010309048007FF1F62
:104190000000000002030904DC07FF1F000000000C
:1041A00003030904F607FF1F0000000000000000E1
:1041B0000000000000000000F8B500BFF8BC08BC1B
:1041C0009E46704735040000CD050000E106000062
:1041D000F5070000090900001D0A0000310B00006E
:0441E0007D2D000031
:1041E40001090A081F202222FFFFFFFF0A0412010F
:1041F400010102000040C016830400020102030111
:1042040018035400650065006E00730079006400B3
:10421400750069006E006F0009024300020100C0CE
:104224003209040000010202010005240010010506
:104234002401010104240206052406000107058265
:104244000310004009040100020A000000070503EE
:1042540002400000070584024000000016035500D8
:1042640053004200200053006500720069006100A1
:104274006C00040309040C030000000000000000AB
:0C4284000000000000000000000000002E
:00000001FF
